S00D00007461736B312E7372656333
S113000019C035C034C033C032C031C030C02FC075
S11300102EC02DC02CC02BC02AC029C028C027C088
S113002026C025C024C023C022C021C08BC01FC04D
S11300301EC01DC011241FBECFEFCDBFDFE3DEBF46
S11300401EE3A0E0BEE3E4E2FAE002C005900D92F4
S1130050A631B107D9F72EE3A6E1BEE301C01D9294
S1130060A032B207E1F70E945E000C9410050C94D4
S11300700000E0E0F6E08081846080838181836019
S1130080818382818061828382818560828386818B
S1130090816086838081816080830895E0E0F6E05A
S11300A0868380858160808783858130E9F7E0E0FD
S11300B0F6E0808993859E7F938708956CE675E0CA
S11300C080E090E00E9489000E9439007894C6E0A4
S11300D0DEE386E00E944E001F928F93DF93CF935E
S11300E00E94FB009AE02BE882E09150204080407F
S11300F0E1F700C00F900F900F900F90EACFE0E06F
S1130100F8E0948195FFFDCF8093020880E090E0B1
S11301100895E0E2F4E025812460258321812460B0
S11301202183E0E0F8E0608771878681806C8683B4
S113013085818068858360E070E08FE790E00E94AD
S1130140B00008951F920F920FB60F9211248F934F
S1130150809100088F910F900FBE0F901F901895FB
S11301600F931F93CF93DF93009731F461157105BB
S113017019F480E090E03AC08B01EC016EE070E08D
S113018081E090E00E94E302FC01892B91F380E876
S113019083830115110571F00287138781E8838336
S11301A08091163E9091173E892B21F4E093163EE0
S11301B0F093173E2097C9F0C087D187838182606E
S11301C083838091183E9091193E892B71F4E093BA
S11301D0183EF093193E80911A3E90911B3E892B54
S11301E021F4E0931A3EF0931B3ECF01DF91CF91AF
S11301F01F910F910895A0E0B0E0E1E0F1E00C94CC
S1130200EF04AE014B5F5F4FFA0161917191AF0151
S11302108091183E9091193E0E941101E2E00C94E5
S11302200805ACE0B0E0E7E1F1E00C94DF047C0108
S11302306B018A01FC0116821782838181FFBDC193
S1130240CE0101964C01F7019381F60193FD85914E
S113025093FF81916F01882309F4ABC1853239F48E
S113026093FD859193FF81916F01853229F4B70144
S113027090E00E944904E7CF512C312C20E0203239
S1130280A0F48B3269F030F4803259F0833269F48F
S113029020612CC08D3239F0803339F4216026C0BE
S11302A02260246023C0286021C027FD27C030EDD0
S11302B0380F3A3078F426FF06C0FAE05F9E300D1E
S11302C01124532E13C08AE0389E300D1124332E8E
S11302D020620CC08E3221F426FD6BC1206406C05E
S11302E08C3611F4206802C0883641F4F60193FD7F
S11302F0859193FF81916F018111C1CF982F9F7DCB
S11303009554933028F40C5F1F4FFFE3F9830DC01D
S1130310833631F0833771F0833509F05BC022C036
S1130320F801808189830E5F1F4F44244394512C2C
S1130330540115C03801F2E06F0E711CF801A08061
S1130340B18026FF03C0652D70E002C06FEF7FEF20
S1130350C5012C870E943E042C0183012C852F7734
S1130360222E17C03801F2E06F0E711CF801A08034
S1130370B18026FF03C0652D70E002C06FEF7FEFF0
S1130380C5012C870E942C042C012C852068222E68
S1130390830123FC1BC0832D90E048165906B0F45A
S11303A0B70180E290E00E9449043A94F4CFF50149
S11303B027FC859127FE81915F01B70190E00E949F
S11303C0490431103A94F1E04F1A51084114510490
S11303D071F7E5C0843611F0893639F5F80127FF45
S11303E007C060817181828193810C5F1F4F08C0B7
S11303F060817181072E000C880B990B0E5F1F4FD3
S11304002F76722E97FF09C090958095709561950F
S11304107F4F8F4F9F4F2068722E2AE030E0A40157
S11304200E948104A82EA81844C0853729F42F7E81
S1130430B22E2AE030E025C0F22FF97FBF2E8F368E
S1130440C1F018F4883579F0B4C0803719F08837D2
S113045021F0AFC02F2F2061B22EB4FE0DC08B2D22
S11304608460B82E09C024FF0AC09F2F9660B92E5D
S113047006C028E030E005C020E130E002C020E101
S113048032E0F801B7FE07C06081718182819381F7
S11304900C5F1F4F06C06081718180E090E00E5FA9
S11304A01F4FA4010E948104A82EA818FB2DFF77DA
S11304B07F2E76FE0BC0372D3E7FA51450F474FEBC
S11304C00AC072FC08C0372D3E7E05C0BA2C372DF9
S11304D003C0BA2C01C0B52C34FF0DC0FE01EA0DD7
S11304E0F11D8081803311F4397E09C032FF06C0CA
S11304F0B394B39404C0832F867809F0B39433FD86
S113050013C030FF06C05A2CB31418F4530C5B18F4
S1130510B32CB31468F4B70180E290E03C870E94E6
S11305204904B3943C85F5CFB31410F43B1801C0CF
S1130530312C34FF12C0B70180E390E03C870E9465
S113054049043C8532FF17C031FD03C088E790E0C1
S113055002C088E590E0B7010CC0832F867859F07B
S113056031FF02C08BE201C080E237FD8DE2B701AA
S113057090E00E944904A51438F4B70180E390E0A8
S11305800E9449045A94F7CFAA94F401EA0DF11D8C
S11305908081B70190E00E944904A110F5CF332077
S11305A009F451CEB70180E290E00E9449043A94E4
S11305B0F6CFF7018681978102C08FEF9FEF2C96CB
S11305C0E2E10C94F8040F931F93CF93DF93869F7B
S11305D08001879F100D969F100D1124C8010E9461
S11305E0FF02EC01009729F0A80160E070E00E948E
S11305F03704CE01DF91CF911F910F910895CF93CE
S1130600DF938230910510F482E090E0E0911E3E89
S1130610F0911F3E20E030E0C0E0D0E0309711F1CF
S11306204081518148175907C0F04817590761F4B0
S113063082819381209719F08A839B832BC08093B6
S11306401E3E90931F3E26C02115310519F0421716
S1130650530718F49A01BE01DF01EF010280F38110
S1130660E02DDCCF2115310509F1281B390B24308D
S1130670310590F412968D919C9113976115710533
S113068021F0FB018283938304C080931E3E9093E8
S11306901F3EFD01329644C0FD01E20FF31F81931A
S11306A09193225031092D933C933AC020911C3EE2
S11306B030911D3E232B41F42091023E3091033EA4
S11306C020931C3E30931D3E2091003E3091013E0C
S11306D02115310541F42DB73EB74091043E5091A8
S11306E0053E241B350BE0911C3EF0911D3EE217A4
S11306F0F307A0F42E1B3F0B2817390778F0AC0141
S11307004E5F5F4F2417350748F04E0F5F1F40932D
S11307101C3E50931D3E8193919302C0E0E0F0E0B3
S1130720CF01DF91CF9108950F931F93CF93DF9360
S1130730009709F48CC0FC01329712821382009155
S11307401E3E10911F3E0115110581F42081318157
S1130750820F931F20911C3E30911D3E28173907AC
S113076079F5E0931C3EF0931D3E71C0D80140E042
S113077050E0AE17BF0750F412962D913C91139799
S1130780AD012115310509F1D901F3CF9D01DA013C
S11307902283338360817181860F971F82179307A9
S11307A069F4EC0128813981260F371F2E5F3F4FF2
S11307B0208331838A819B8182839383452B29F40F
S11307C0E0931E3EF0931F3E42C01296ED93FC93BD
S11307D01397ED01499159919E01240F351FE2179A
S11307E0F30771F480819181840F951F02968D9394
S11307F09C9311978281938112968D939C93139766
S1130800E0E0F0E0D80112968D919C911397009747
S113081019F0F8018C01F6CF8D919C9198012E5F0F
S11308203F4F820F931F20911C3E30911D3E28178D
S1130830390769F4309729F410921E3E10921F3E36
S113084002C01282138200931C3E10931D3EDF915E
S1130850CF911F910F910895FC0105906150704054
S11308600110D8F7809590958E0F9F1F0895DC0195
S113087001C06D9341505040E0F70895FC01615070
S1130880704001900110D8F7809590958E0F9F1FAE
S113089008950F931F93CF93DF93FB01238121FDD1
S11308A003C08FEF9FEF28C022FF16C046815781F7
S11308B0248135814217530744F4A081B1819D01FD
S11308C02F5F3F4F208331838C93268137812F5FA5
S11308D03F4F2683378310C0EB01092F182F008464
S11308E0F185E02D0995892BE1F68E819F81019692
S11308F08E839F83812F902FDF91CF911F910F9132
S11309000895FA01AA27283051F1203181F1E894A1
S11309106F936E7F6E5F7F4F8F4F9F4FAF4FB1E0EE
S11309203ED0B4E03CD0670F781F891F9A1FA11DE9
S1130930680F791F8A1F911DA11D6A0F711D811DEA
S1130940911DA11D20D009F468943F912AE0269FAF
S113095011243019305D3193DEF6CF010895462F0E
S11309604770405D4193B3E00FD0C9F7F6CF462FEF
S11309704F70405D4A3318F0495D31FD4052419358
S113098002D0A9F7EACFB4E0A69597958795779515
S11309906795BA95C9F700976105710508959B019C
S11309A0AC010A2E06945795479537952795BA9525
S11309B0C9F7620F731F841F951FA01D08952F92FE
S11309C03F924F925F926F927F928F929F92AF92DB
S11309D0BF92CF92DF92EF92FF920F931F93CF9328
S11309E0DF93CDB7DEB7CA1BDB0BCDBFDEBF0994E7
S11309F02A88398848885F846E847D848C849B84AB
S1130A00AA84B984C884DF80EE80FD800C811B81B8
S1130A10AA81B981CE0FD11DCDBFDEBFED010895EE
S1070A20F894FFCF74
S1130A240000203E20004C797376657264693A2094
S1090A342564200A000005
S9030000FC
