:1000000019C022C021C020C01FC01EC01DC01CC0FE
:100010001BC01AC019C018C017C016C015C014C024
:1000200013C012C011C010C00FC00EC034C00CC02D
:100030000BC00AC011241FBECFEFCDBFDFE3DEBF70
:100040000E9443000C9471000C940000E0E2F4E084
:10005000808184608083848184608483E0E0F8E030
:100060008CE695E0808791878681806C8683858188
:10007000806885830895E0E0F8E0948195FFFDCFE6
:100080008093020808956CE675E080E090E00E949D
:1000900026007894FFCF1F920F920FB60F92112473
:1000A0002F933F934F935F936F937F938F939F9380
:1000B000AF93BF93EF93FF93809100080E943B00A2
:1000C000FF91EF91BF91AF919F918F917F916F9130
:1000D0005F914F913F912F910F900FBE0F901F9006
:0600E0001895F894FFCF13
:00000001FF
