:1000000019C022C021C020C01FC01EC01DC01CC0FE
:100010001BC01AC019C018C017C016C015C014C024
:1000200013C012C011C010C00FC00EC00DC00CC054
:100030000BC00AC011241FBECFEFCDBFDFE3DEBF70
:100040000E9426000C9482000C940000E0E2F4E090
:1000500080818068808380818083808180838081AB
:10006000877F808380818064808380818F7E80838E
:1000700081898860818B82898860828B838988608E
:10008000838BA0E0B0E060E070E040E050E080E012
:1000900090E030E42085009741F44130510529F487
:1000A000248120582483AC0108C02085009729F0C2
:1000B0004115510511F441E050E0208523FD07C0B2
:1000C0006130710521F424812483BC0108C020859E
:1000D00023FF05C06115710511F461E070E0208512
:1000E00024FD08C0A130B10529F4248123272483ED
:1000F000DC01D0CF208524FFCDCF109759F6A1E0A9
:08010000B0E0C8CFF894FFCF76
:00000001FF
